{
  "_format": "hh-sol-artifact-1",
  "contractName": "WavePortal",
  "sourceName": "contracts/WavePortal.sol",
  "abi": [
    {
      "inputs": [],
      "stateMutability": "payable",
      "type": "constructor"
    },
    {
      "anonymous": false,
      "inputs": [
        {
          "indexed": true,
          "internalType": "address",
          "name": "from",
          "type": "address"
        },
        {
          "indexed": false,
          "internalType": "uint256",
          "name": "timestamp",
          "type": "uint256"
        },
        {
          "indexed": false,
          "internalType": "string",
          "name": "message",
          "type": "string"
        }
      ],
      "name": "NewWave",
      "type": "event"
    },
    {
      "inputs": [],
      "name": "getAllWaves",
      "outputs": [
        {
          "components": [
            {
              "internalType": "address",
              "name": "waver",
              "type": "address"
            },
            {
              "internalType": "string",
              "name": "message",
              "type": "string"
            },
            {
              "internalType": "uint256",
              "name": "timestamp",
              "type": "uint256"
            }
          ],
          "internalType": "struct WavePortal.Wave[]",
          "name": "",
          "type": "tuple[]"
        }
      ],
      "stateMutability": "view",
      "type": "function"
    },
    {
      "inputs": [],
      "name": "getTotalWaves",
      "outputs": [
        {
          "internalType": "uint256",
          "name": "",
          "type": "uint256"
        }
      ],
      "stateMutability": "view",
      "type": "function"
    },
    {
      "inputs": [
        {
          "internalType": "address",
          "name": "",
          "type": "address"
        }
      ],
      "name": "lastWaveAt",
      "outputs": [
        {
          "internalType": "uint256",
          "name": "",
          "type": "uint256"
        }
      ],
      "stateMutability": "view",
      "type": "function"
    },
    {
      "inputs": [
        {
          "internalType": "string",
          "name": "_message",
          "type": "string"
        }
      ],
      "name": "wave",
      "outputs": [],
      "stateMutability": "nonpayable",
      "type": "function"
    }
  ],
  "bytecode": "0x60806040526200004f6040518060400160405280601c81526020017f57657665506f7274616c202d20536d61727420436f6e747261637421000000008152506200007760201b620006c51760201c565b606444426200005f91906200017c565b6200006b9190620001e6565b600181905550620002dc565b62000117816040516024016200008e9190620002b8565b6040516020818303038152906040527f41304fac000000000000000000000000000000000000000000000000000000007bffffffffffffffffffffffffffffffffffffffffffffffffffffffff19166020820180517bffffffffffffffffffffffffffffffffffffffffffffffffffffffff83818316178352505050506200011a60201b60201c565b50565b60008151905060006a636f6e736f6c652e6c6f679050602083016000808483855afa5050505050565b6000819050919050565b7f4e487b7100000000000000000000000000000000000000000000000000000000600052601160045260246000fd5b6000620001898262000143565b9150620001968362000143565b9250828201905080821115620001b157620001b06200014d565b5b92915050565b7f4e487b7100000000000000000000000000000000000000000000000000000000600052601260045260246000fd5b6000620001f38262000143565b9150620002008362000143565b925082620002135762000212620001b7565b5b828206905092915050565b600081519050919050565b600082825260208201905092915050565b60005b838110156200025a5780820151818401526020810190506200023d565b60008484015250505050565b6000601f19601f8301169050919050565b600062000284826200021e565b62000290818562000229565b9350620002a28185602086016200023a565b620002ad8162000266565b840191505092915050565b60006020820190508181036000830152620002d4818462000277565b905092915050565b61148e80620002ec6000396000f3fe608060405234801561001057600080fd5b506004361061004c5760003560e01c8063449d46c0146100515780639a2cdc081461006d578063bd43a9081461008b578063cb199503146100a9575b600080fd5b61006b60048036038101906100669190610ab8565b6100d9565b005b610075610511565b6040516100829190610b1a565b60405180910390f35b61009361055c565b6040516100a09190610d16565b60405180910390f35b6100c360048036038101906100be9190610d64565b6106ad565b6040516100d09190610b1a565b60405180910390f35b42601e600360003373ffffffffffffffffffffffffffffffffffffffff1673ffffffffffffffffffffffffffffffffffffffff168152602001908152602001600020546101269190610dc0565b10610166576040517f08c379a000000000000000000000000000000000000000000000000000000000815260040161015d90610e51565b60405180910390fd5b42600360003373ffffffffffffffffffffffffffffffffffffffff1673ffffffffffffffffffffffffffffffffffffffff1681526020019081526020016000208190555060016000808282546101bc9190610dc0565b925050819055506102036040518060400160405280601681526020017f257320776176656420772f206d65737361676520257300000000000000000000815250338361075e565b600260405180606001604052803373ffffffffffffffffffffffffffffffffffffffff16815260200183815260200142815250908060018154018082558091505060019003906000526020600020906003020160009091909190915060008201518160000160006101000a81548173ffffffffffffffffffffffffffffffffffffffff021916908373ffffffffffffffffffffffffffffffffffffffff16021790555060208201518160010190816102bb919061107d565b50604082015181600201555050606460015442446102d99190610dc0565b6102e39190610dc0565b6102ed919061117e565b6001819055506103346040518060400160405280601681526020017f52616e646f6d20232067656e6572617465643a202564000000000000000000008152506001546107fd565b60326001541161047e5761037d6040518060400160405280600781526020017f257320776f6e210000000000000000000000000000000000000000000000000081525033610899565b600065b5e620f480009050478111156103cb576040517f08c379a00000000000000000000000000000000000000000000000000000000081526004016103c290611221565b60405180910390fd5b60003373ffffffffffffffffffffffffffffffffffffffff16826040516103f190611272565b60006040518083038185875af1925050503d806000811461042e576040519150601f19603f3d011682016040523d82523d6000602084013e610433565b606091505b5050905080610477576040517f08c379a000000000000000000000000000000000000000000000000000000000815260040161046e906112f9565b60405180910390fd5b50506104be565b6104bd6040518060400160405280600f81526020017f257320646964206e6f742077696e21000000000000000000000000000000000081525033610899565b5b3373ffffffffffffffffffffffffffffffffffffffff167f5f7e16dc676677766a70e9c5628aa6c54ddb8b6e5188e2ae1e1f17f1ffbea7164283604051610506929190611352565b60405180910390a250565b60006105546040518060400160405280601781526020017f5765206861766520256420746f74616c207761766573210000000000000000008152506000546107fd565b600054905090565b60606002805480602002602001604051908101604052809291908181526020016000905b828210156106a457838290600052602060002090600302016040518060600160405290816000820160009054906101000a900473ffffffffffffffffffffffffffffffffffffffff1673ffffffffffffffffffffffffffffffffffffffff1673ffffffffffffffffffffffffffffffffffffffff16815260200160018201805461060990610ea0565b80601f016020809104026020016040519081016040528092919081815260200182805461063590610ea0565b80156106825780601f1061065757610100808354040283529160200191610682565b820191906000526020600020905b81548152906001019060200180831161066557829003601f168201915b5050505050815260200160028201548152505081526020019060010190610580565b50505050905090565b60036020528060005260406000206000915090505481565b61075b816040516024016106d99190611382565b6040516020818303038152906040527f41304fac000000000000000000000000000000000000000000000000000000007bffffffffffffffffffffffffffffffffffffffffffffffffffffffff19166020820180517bffffffffffffffffffffffffffffffffffffffffffffffffffffffff8381831617835250505050610935565b50565b6107f8838383604051602401610776939291906113b3565b6040516020818303038152906040527fe0e9ad4f000000000000000000000000000000000000000000000000000000007bffffffffffffffffffffffffffffffffffffffffffffffffffffffff19166020820180517bffffffffffffffffffffffffffffffffffffffffffffffffffffffff8381831617835250505050610935565b505050565b61089582826040516024016108139291906113f8565b6040516020818303038152906040527fb60e72cc000000000000000000000000000000000000000000000000000000007bffffffffffffffffffffffffffffffffffffffffffffffffffffffff19166020820180517bffffffffffffffffffffffffffffffffffffffffffffffffffffffff8381831617835250505050610935565b5050565b61093182826040516024016108af929190611428565b6040516020818303038152906040527f319af333000000000000000000000000000000000000000000000000000000007bffffffffffffffffffffffffffffffffffffffffffffffffffffffff19166020820180517bffffffffffffffffffffffffffffffffffffffffffffffffffffffff8381831617835250505050610935565b5050565b60008151905060006a636f6e736f6c652e6c6f679050602083016000808483855afa5050505050565b6000604051905090565b600080fd5b600080fd5b600080fd5b600080fd5b6000601f19601f8301169050919050565b7f4e487b7100000000000000000000000000000000000000000000000000000000600052604160045260246000fd5b6109c58261097c565b810181811067ffffffffffffffff821117156109e4576109e361098d565b5b80604052505050565b60006109f761095e565b9050610a0382826109bc565b919050565b600067ffffffffffffffff821115610a2357610a2261098d565b5b610a2c8261097c565b9050602081019050919050565b82818337600083830152505050565b6000610a5b610a5684610a08565b6109ed565b905082815260208101848484011115610a7757610a76610977565b5b610a82848285610a39565b509392505050565b600082601f830112610a9f57610a9e610972565b5b8135610aaf848260208601610a48565b91505092915050565b600060208284031215610ace57610acd610968565b5b600082013567ffffffffffffffff811115610aec57610aeb61096d565b5b610af884828501610a8a565b91505092915050565b6000819050919050565b610b1481610b01565b82525050565b6000602082019050610b2f6000830184610b0b565b92915050565b600081519050919050565b600082825260208201905092915050565b6000819050602082019050919050565b600073ffffffffffffffffffffffffffffffffffffffff82169050919050565b6000610b8c82610b61565b9050919050565b610b9c81610b81565b82525050565b600081519050919050565b600082825260208201905092915050565b60005b83811015610bdc578082015181840152602081019050610bc1565b60008484015250505050565b6000610bf382610ba2565b610bfd8185610bad565b9350610c0d818560208601610bbe565b610c168161097c565b840191505092915050565b610c2a81610b01565b82525050565b6000606083016000830151610c486000860182610b93565b5060208301518482036020860152610c608282610be8565b9150506040830151610c756040860182610c21565b508091505092915050565b6000610c8c8383610c30565b905092915050565b6000602082019050919050565b6000610cac82610b35565b610cb68185610b40565b935083602082028501610cc885610b51565b8060005b85811015610d045784840389528151610ce58582610c80565b9450610cf083610c94565b925060208a01995050600181019050610ccc565b50829750879550505050505092915050565b60006020820190508181036000830152610d308184610ca1565b905092915050565b610d4181610b81565b8114610d4c57600080fd5b50565b600081359050610d5e81610d38565b92915050565b600060208284031215610d7a57610d79610968565b5b6000610d8884828501610d4f565b91505092915050565b7f4e487b7100000000000000000000000000000000000000000000000000000000600052601160045260246000fd5b6000610dcb82610b01565b9150610dd683610b01565b9250828201905080821115610dee57610ded610d91565b5b92915050565b600082825260208201905092915050565b7f7761697420333073656300000000000000000000000000000000000000000000600082015250565b6000610e3b600a83610df4565b9150610e4682610e05565b602082019050919050565b60006020820190508181036000830152610e6a81610e2e565b9050919050565b7f4e487b7100000000000000000000000000000000000000000000000000000000600052602260045260246000fd5b60006002820490506001821680610eb857607f821691505b602082108103610ecb57610eca610e71565b5b50919050565b60008190508160005260206000209050919050565b60006020601f8301049050919050565b600082821b905092915050565b600060088302610f337fffffffffffffffffffffffffffffffffffffffffffffffffffffffffffffffff82610ef6565b610f3d8683610ef6565b95508019841693508086168417925050509392505050565b6000819050919050565b6000610f7a610f75610f7084610b01565b610f55565b610b01565b9050919050565b6000819050919050565b610f9483610f5f565b610fa8610fa082610f81565b848454610f03565b825550505050565b600090565b610fbd610fb0565b610fc8818484610f8b565b505050565b5b81811015610fec57610fe1600082610fb5565b600181019050610fce565b5050565b601f8211156110315761100281610ed1565b61100b84610ee6565b8101602085101561101a578190505b61102e61102685610ee6565b830182610fcd565b50505b505050565b600082821c905092915050565b600061105460001984600802611036565b1980831691505092915050565b600061106d8383611043565b9150826002028217905092915050565b61108682610ba2565b67ffffffffffffffff81111561109f5761109e61098d565b5b6110a98254610ea0565b6110b4828285610ff0565b600060209050601f8311600181146110e757600084156110d5578287015190505b6110df8582611061565b865550611147565b601f1984166110f586610ed1565b60005b8281101561111d578489015182556001820191506020850194506020810190506110f8565b8683101561113a5784890151611136601f891682611043565b8355505b6001600288020188555050505b505050505050565b7f4e487b7100000000000000000000000000000000000000000000000000000000600052601260045260246000fd5b600061118982610b01565b915061119483610b01565b9250826111a4576111a361114f565b5b828206905092915050565b7f547279696e6720746f207769746864726177206d6f7265206d6f6e657920746860008201527f616e2074686520636f6e7472616374206861732e000000000000000000000000602082015250565b600061120b603483610df4565b9150611216826111af565b604082019050919050565b6000602082019050818103600083015261123a816111fe565b9050919050565b600081905092915050565b50565b600061125c600083611241565b91506112678261124c565b600082019050919050565b600061127d8261124f565b9150819050919050565b7f4661696c656420746f207769746864726177206d6f6e65792066726f6d20636f60008201527f6e74726163742e00000000000000000000000000000000000000000000000000602082015250565b60006112e3602783610df4565b91506112ee82611287565b604082019050919050565b60006020820190508181036000830152611312816112d6565b9050919050565b600061132482610ba2565b61132e8185610df4565b935061133e818560208601610bbe565b6113478161097c565b840191505092915050565b60006040820190506113676000830185610b0b565b81810360208301526113798184611319565b90509392505050565b6000602082019050818103600083015261139c8184611319565b905092915050565b6113ad81610b81565b82525050565b600060608201905081810360008301526113cd8186611319565b90506113dc60208301856113a4565b81810360408301526113ee8184611319565b9050949350505050565b600060408201905081810360008301526114128185611319565b90506114216020830184610b0b565b9392505050565b600060408201905081810360008301526114428185611319565b905061145160208301846113a4565b939250505056fea26469706673582212203b62bf284425f97996d79781b7fbda356e75081e686f6c5e56457ea61e72c3af64736f6c63430008110033",
  "linkReferences": {},
  "deployedLinkReferences": {}
}